{
  "_format": "hh-sol-artifact-1",
  "contractName": "SpaceLisk",
  "sourceName": "contracts/SpaceLisk.sol",
  "abi": [
    {
      "inputs": [
        {
          "internalType": "address",
          "name": "_paymaster",
          "type": "address"
        }
      ],
      "stateMutability": "nonpayable",
      "type": "constructor"
    },
    {
      "anonymous": false,
      "inputs": [
        {
          "indexed": true,
          "internalType": "address",
          "name": "previousOwner",
          "type": "address"
        },
        {
          "indexed": true,
          "internalType": "address",
          "name": "newOwner",
          "type": "address"
        }
      ],
      "name": "OwnershipTransferred",
      "type": "event"
    },
    {
      "anonymous": false,
      "inputs": [
        {
          "indexed": false,
          "internalType": "address",
          "name": "user",
          "type": "address"
        },
        {
          "indexed": false,
          "internalType": "uint256",
          "name": "amount",
          "type": "uint256"
        }
      ],
      "name": "PaymasterUserTopup",
      "type": "event"
    },
    {
      "anonymous": false,
      "inputs": [
        {
          "indexed": false,
          "internalType": "address",
          "name": "user",
          "type": "address"
        },
        {
          "indexed": false,
          "internalType": "uint256",
          "name": "amount",
          "type": "uint256"
        }
      ],
      "name": "PaymasterUserWithdraw",
      "type": "event"
    },
    {
      "anonymous": false,
      "inputs": [
        {
          "indexed": false,
          "internalType": "address",
          "name": "sender",
          "type": "address"
        },
        {
          "indexed": false,
          "internalType": "uint256",
          "name": "amount",
          "type": "uint256"
        }
      ],
      "name": "Received",
      "type": "event"
    },
    {
      "anonymous": false,
      "inputs": [
        {
          "indexed": false,
          "internalType": "address",
          "name": "account",
          "type": "address"
        },
        {
          "indexed": false,
          "internalType": "string",
          "name": "package",
          "type": "string"
        }
      ],
      "name": "SubscriptionActive",
      "type": "event"
    },
    {
      "anonymous": false,
      "inputs": [
        {
          "indexed": false,
          "internalType": "string",
          "name": "package",
          "type": "string"
        },
        {
          "indexed": false,
          "internalType": "uint256",
          "name": "price",
          "type": "uint256"
        }
      ],
      "name": "UpdatedPackage",
      "type": "event"
    },
    {
      "inputs": [
        {
          "internalType": "address",
          "name": "user",
          "type": "address"
        }
      ],
      "name": "fundUserPaymasterBalance",
      "outputs": [],
      "stateMutability": "payable",
      "type": "function"
    },
    {
      "inputs": [
        {
          "internalType": "string",
          "name": "package",
          "type": "string"
        }
      ],
      "name": "getPackagePrice",
      "outputs": [
        {
          "internalType": "uint256",
          "name": "",
          "type": "uint256"
        }
      ],
      "stateMutability": "view",
      "type": "function"
    },
    {
      "inputs": [],
      "name": "getPosts",
      "outputs": [
        {
          "internalType": "address[]",
          "name": "",
          "type": "address[]"
        }
      ],
      "stateMutability": "view",
      "type": "function"
    },
    {
      "inputs": [
        {
          "internalType": "address",
          "name": "user",
          "type": "address"
        }
      ],
      "name": "getSubscriptionInfo",
      "outputs": [
        {
          "components": [
            {
              "internalType": "string",
              "name": "packageId",
              "type": "string"
            },
            {
              "internalType": "uint256",
              "name": "timestamp",
              "type": "uint256"
            }
          ],
          "internalType": "struct SpaceLisk.Subscription",
          "name": "",
          "type": "tuple"
        }
      ],
      "stateMutability": "view",
      "type": "function"
    },
    {
      "inputs": [
        {
          "internalType": "address",
          "name": "user",
          "type": "address"
        }
      ],
      "name": "getUserBalance",
      "outputs": [
        {
          "internalType": "uint256",
          "name": "",
          "type": "uint256"
        }
      ],
      "stateMutability": "view",
      "type": "function"
    },
    {
      "inputs": [],
      "name": "owner",
      "outputs": [
        {
          "internalType": "address",
          "name": "",
          "type": "address"
        }
      ],
      "stateMutability": "view",
      "type": "function"
    },
    {
      "inputs": [
        {
          "internalType": "uint32",
          "name": "unstakeDelaySec",
          "type": "uint32"
        }
      ],
      "name": "paymasterAddStake",
      "outputs": [],
      "stateMutability": "payable",
      "type": "function"
    },
    {
      "inputs": [],
      "name": "paymasterDeposit",
      "outputs": [],
      "stateMutability": "payable",
      "type": "function"
    },
    {
      "inputs": [
        {
          "internalType": "address",
          "name": "to",
          "type": "address"
        }
      ],
      "name": "paymasterTransferOwnership",
      "outputs": [],
      "stateMutability": "nonpayable",
      "type": "function"
    },
    {
      "inputs": [],
      "name": "paymasterUnlockStake",
      "outputs": [],
      "stateMutability": "nonpayable",
      "type": "function"
    },
    {
      "inputs": [
        {
          "internalType": "address payable",
          "name": "to",
          "type": "address"
        },
        {
          "internalType": "uint256",
          "name": "amount",
          "type": "uint256"
        }
      ],
      "name": "paymasterWithdraw",
      "outputs": [],
      "stateMutability": "nonpayable",
      "type": "function"
    },
    {
      "inputs": [
        {
          "internalType": "address payable",
          "name": "to",
          "type": "address"
        }
      ],
      "name": "paymasterWithdrawStake",
      "outputs": [],
      "stateMutability": "nonpayable",
      "type": "function"
    },
    {
      "inputs": [
        {
          "internalType": "string",
          "name": "package",
          "type": "string"
        },
        {
          "internalType": "address",
          "name": "account",
          "type": "address"
        }
      ],
      "name": "purchaseSubscription",
      "outputs": [],
      "stateMutability": "payable",
      "type": "function"
    },
    {
      "inputs": [],
      "name": "renounceOwnership",
      "outputs": [],
      "stateMutability": "nonpayable",
      "type": "function"
    },
    {
      "inputs": [
        {
          "internalType": "address",
          "name": "newOwner",
          "type": "address"
        }
      ],
      "name": "transferOwnership",
      "outputs": [],
      "stateMutability": "nonpayable",
      "type": "function"
    },
    {
      "inputs": [
        {
          "internalType": "string",
          "name": "package",
          "type": "string"
        },
        {
          "internalType": "uint256",
          "name": "price",
          "type": "uint256"
        }
      ],
      "name": "updatePackage",
      "outputs": [],
      "stateMutability": "nonpayable",
      "type": "function"
    },
    {
      "inputs": [
        {
          "internalType": "contract IERC20",
          "name": "token",
          "type": "address"
        },
        {
          "internalType": "address",
          "name": "recipient",
          "type": "address"
        },
        {
          "internalType": "uint256",
          "name": "amount",
          "type": "uint256"
        }
      ],
      "name": "withdrawERC20",
      "outputs": [],
      "stateMutability": "nonpayable",
      "type": "function"
    },
    {
      "inputs": [
        {
          "internalType": "address payable",
          "name": "recipient",
          "type": "address"
        },
        {
          "internalType": "uint256",
          "name": "amount",
          "type": "uint256"
        }
      ],
      "name": "withdrawEther",
      "outputs": [],
      "stateMutability": "nonpayable",
      "type": "function"
    },
    {
      "inputs": [
        {
          "internalType": "address payable",
          "name": "to",
          "type": "address"
        },
        {
          "internalType": "uint256",
          "name": "amount",
          "type": "uint256"
        }
      ],
      "name": "withdrawUserPaymasterBalance",
      "outputs": [],
      "stateMutability": "nonpayable",
      "type": "function"
    },
    {
      "stateMutability": "payable",
      "type": "receive"
    }
  ],
  "bytecode": "0x60a06040523480156200001157600080fd5b5060405162001f2238038062001f228339810160408190526200003491620000a1565b6200003f3362000051565b6001600160a01b0316608052620000d3565b600080546001600160a01b038381166001600160a01b0319831681178455604051919092169283917f8be0079c531659141344cd1fd0a4f28419497f9722a3daafe3b4186f6b6457e09190a35050565b600060208284031215620000b457600080fd5b81516001600160a01b0381168114620000cc57600080fd5b9392505050565b608051611df46200012e600039600081816104530152818161051701528181610672015281816107a801528181610a1001528181610f9c0152818161104d015281816111c2015281816112aa01526115310152611df46000f3fe6080604052600436106101485760003560e01c8063685aee09116100c0578063a74a87a111610074578063e6dbb05511610059578063e6dbb0551461035a578063f2fde38b1461037a578063f804bb0e1461039a57600080fd5b8063a74a87a11461031a578063b36a2e101461033a57600080fd5b8063715018a6116100a5578063715018a6146102bd5780638da5cb5b146102d2578063920f66db146102fa57600080fd5b8063685aee09146102955780636f31a8b6146102aa57600080fd5b806344004cc111610117578063477ceb9c116100fc578063477ceb9c14610242578063522f6815146102625780635a1995a61461028257600080fd5b806344004cc1146101f4578063477348921461021457600080fd5b80630702a32a1461018c57806319789ec9146101ae57806337d0b0af146101c157806341f3004a146101c957600080fd5b3661018757604080513381523460208201527f88a5966d370b9919b20f3e2c13ff65706f196a4e32cc2c12bf57088f88525874910160405180910390a1005b600080fd5b34801561019857600080fd5b506101ac6101a73660046117b1565b6103c7565b005b6101ac6101bc3660046117dd565b6104b3565b6101ac610625565b3480156101d557600080fd5b506101de6107a4565b6040516101eb919061180a565b60405180910390f35b34801561020057600080fd5b506101ac61020f366004611857565b610831565b34801561022057600080fd5b5061023461022f366004611898565b6109d5565b6040519081526020016101eb565b34801561024e57600080fd5b5061023461025d36600461196c565b610a83565b34801561026e57600080fd5b506101ac61027d3660046117b1565b610aab565b6101ac6102903660046119a9565b610c40565b3480156102a157600080fd5b506101ac610f52565b6101ac6102b8366004611898565b61100f565b3480156102c957600080fd5b506101ac6110ee565b3480156102de57600080fd5b506000546040516001600160a01b0390911681526020016101eb565b34801561030657600080fd5b506101ac610315366004611898565b611142565b34801561032657600080fd5b506101ac6103353660046117b1565b611222565b34801561034657600080fd5b506101ac6103553660046119fb565b611409565b34801561036657600080fd5b506101ac610375366004611898565b6114b1565b34801561038657600080fd5b506101ac610395366004611898565b611560565b3480156103a657600080fd5b506103ba6103b5366004611898565b61162d565b6040516101eb9190611a90565b6000546001600160a01b031633146104145760405162461bcd60e51b81526020600482018190526024820152600080516020611d9f83398151915260448201526064015b60405180910390fd5b6040517ff3fef3a30000000000000000000000000000000000000000000000000000000081526001600160a01b038381166004830152602482018390527f0000000000000000000000000000000000000000000000000000000000000000169063f3fef3a390604401600060405180830381600087803b15801561049757600080fd5b505af11580156104ab573d6000803e3d6000fd5b505050505050565b6000546001600160a01b031633146104fb5760405162461bcd60e51b81526020600482018190526024820152600080516020611d9f833981519152604482015260640161040b565b60405163ffffffff821660248201526000906001600160a01b037f00000000000000000000000000000000000000000000000000000000000000001690349060440160408051601f198184030181529181526020820180517bffffffffffffffffffffffffffffffffffffffffffffffffffffffff167f0396cb6000000000000000000000000000000000000000000000000000000000179052516105a09190611ac2565b60006040518083038185875af1925050503d80600081146105dd576040519150601f19603f3d011682016040523d82523d6000602084013e6105e2565b606091505b50509050806106215760405162461bcd60e51b815260206004820152600b60248201526a10d85b1b0819985a5b195960aa1b604482015260640161040b565b5050565b6000546001600160a01b0316331461066d5760405162461bcd60e51b81526020600482018190526024820152600080516020611d9f833981519152604482015260640161040b565b6040517f00000000000000000000000000000000000000000000000000000000000000006001600160a01b03166024820152600090735ff137d4b0fdcd49dca30c7cf57e578a026d278990349060440160408051601f198184030181529181526020820180517bffffffffffffffffffffffffffffffffffffffffffffffffffffffff167fb760faf900000000000000000000000000000000000000000000000000000000179052516107209190611ac2565b60006040518083038185875af1925050503d806000811461075d576040519150601f19603f3d011682016040523d82523d6000602084013e610762565b606091505b50509050806107a15760405162461bcd60e51b815260206004820152600b60248201526a10d85b1b0819985a5b195960aa1b604482015260640161040b565b50565b60607f00000000000000000000000000000000000000000000000000000000000000006001600160a01b03166341f3004a6040518163ffffffff1660e01b8152600401600060405180830381865afa158015610804573d6000803e3d6000fd5b505050506040513d6000823e601f3d908101601f1916820160405261082c9190810190611ade565b905090565b6000546001600160a01b031633146108795760405162461bcd60e51b81526020600482018190526024820152600080516020611d9f833981519152604482015260640161040b565b6000546001600160a01b031633146108f85760405162461bcd60e51b8152602060048201526024808201527f4f6e6c79206f776e65722063616e20776974686472617720455243323020746f60448201527f6b656e7300000000000000000000000000000000000000000000000000000000606482015260840161040b565b6040517fa9059cbb0000000000000000000000000000000000000000000000000000000081526001600160a01b0383811660048301526024820183905284169063a9059cbb906044016020604051808303816000875af1158015610960573d6000803e3d6000fd5b505050506040513d601f19601f820116820180604052508101906109849190611b90565b6109d05760405162461bcd60e51b815260206004820152601b60248201527f455243323020746f6b656e207472616e73666572206661696c65640000000000604482015260640161040b565b505050565b6040517f477348920000000000000000000000000000000000000000000000000000000081526001600160a01b0382811660048301526000917f000000000000000000000000000000000000000000000000000000000000000090911690634773489290602401602060405180830381865afa158015610a59573d6000803e3d6000fd5b505050506040513d601f19601f82011682018060405250810190610a7d9190611bb2565b92915050565b6000600182604051610a959190611ac2565b9081526020016040518091039020549050919050565b6000546001600160a01b03163314610af35760405162461bcd60e51b81526020600482018190526024820152600080516020611d9f833981519152604482015260640161040b565b6000546001600160a01b03163314610b4d5760405162461bcd60e51b815260206004820152601d60248201527f4f6e6c79206f776e65722063616e207769746864726177204574686572000000604482015260640161040b565b47811115610b9d5760405162461bcd60e51b815260206004820152601260248201527f496e73756666696369656e742066756e64730000000000000000000000000000604482015260640161040b565b6000826001600160a01b03168260405160006040518083038185875af1925050503d8060008114610bea576040519150601f19603f3d011682016040523d82523d6000602084013e610bef565b606091505b50509050806109d05760405162461bcd60e51b815260206004820152601860248201527f4661696c656420746f2077697468647261772045746865720000000000000000604482015260640161040b565b600182604051610c509190611ac2565b908152602001604051809103902054600003610cae5760405162461bcd60e51b815260206004820152600f60248201527f496e76616c6964207061636b6167650000000000000000000000000000000000604482015260640161040b565b600182604051610cbe9190611ac2565b908152602001604051809103902054341015610d1c5760405162461bcd60e51b815260206004820152601260248201527f496e73756666696369656e742066756e64730000000000000000000000000000604482015260640161040b565b6001600160a01b0381166000908152600260205260408082208151808301909252805482908290610d4c90611bcb565b80601f0160208091040260200160405190810160405280929190818152602001828054610d7890611bcb565b8015610dc55780601f10610d9a57610100808354040283529160200191610dc5565b820191906000526020600020905b815481529060010190602001808311610da857829003601f168201915b50505050508152602001600182015481525050905082604051602001610deb9190611c05565b60408051601f1981840301815290829052805160209182012083519092610e129201611c05565b60405160208183030381529060405280519060200120148015610e3f5750610e3d8160200151611706565b155b15610eb25760405162461bcd60e51b815260206004820152603760248201527f5573657220616c72656164792068617320616e2061637469766520737562736360448201527f72697074696f6e206f6e2074686973207061636b616765000000000000000000606482015260840161040b565b60006040518060400160405280858152602001836020015162278d00610ed89190611c2e565b90526001600160a01b0384166000908152600260205260409020815191925082918190610f059082611c87565b50602082015181600101559050507f57867f9db38fc409ebfdb574bc7e79711940e8705e8db3afdb139d4d9208160f8385604051610f44929190611d47565b60405180910390a150505050565b6000546001600160a01b03163314610f9a5760405162461bcd60e51b81526020600482018190526024820152600080516020611d9f833981519152604482015260640161040b565b7f00000000000000000000000000000000000000000000000000000000000000006001600160a01b031663bb9fe6bf6040518163ffffffff1660e01b8152600401600060405180830381600087803b158015610ff557600080fd5b505af1158015611009573d6000803e3d6000fd5b50505050565b6040517f4e23a1440000000000000000000000000000000000000000000000000000000081526001600160a01b0382811660048301523460248301527f00000000000000000000000000000000000000000000000000000000000000001690634e23a14490604401600060405180830381600087803b15801561109157600080fd5b505af11580156110a5573d6000803e3d6000fd5b5050604080516001600160a01b03851681523460208201527f1f78c1c861b4626b886b92ac043495a55fa67d7ffee0ea29a416673305208303935001905060405180910390a150565b6000546001600160a01b031633146111365760405162461bcd60e51b81526020600482018190526024820152600080516020611d9f833981519152604482015260640161040b565b6111406000611734565b565b6000546001600160a01b0316331461118a5760405162461bcd60e51b81526020600482018190526024820152600080516020611d9f833981519152604482015260640161040b565b6040517ff2fde38b0000000000000000000000000000000000000000000000000000000081526001600160a01b0382811660048301527f0000000000000000000000000000000000000000000000000000000000000000169063f2fde38b906024015b600060405180830381600087803b15801561120757600080fd5b505af115801561121b573d6000803e3d6000fd5b5050505050565b804710156112725760405162461bcd60e51b815260206004820152601c60248201527f696e7375666669656e742066756e647320696e20636f6e747261637400000000604482015260640161040b565b6040517f0515af9e000000000000000000000000000000000000000000000000000000008152336004820152602481018290526000907f00000000000000000000000000000000000000000000000000000000000000006001600160a01b031690630515af9e906044016020604051808303816000875af11580156112fb573d6000803e3d6000fd5b505050506040513d601f19601f8201168201806040525081019061131f9190611b90565b9050806113945760405162461bcd60e51b815260206004820152602760248201527f4572726f72206f636375726564207768696c65207769746864726177696e672060448201527f62616c616e636500000000000000000000000000000000000000000000000000606482015260840161040b565b6040516001600160a01b0384169083156108fc029084906000818181858888f193505050501580156113ca573d6000803e3d6000fd5b5060408051338152602081018490527fe01aa477e78f362fff5ae0279540ff86eaf095b444e99f782acceb9f0d680356910160405180910390a1505050565b6000546001600160a01b031633146114515760405162461bcd60e51b81526020600482018190526024820152600080516020611d9f833981519152604482015260640161040b565b806001836040516114629190611ac2565b9081526020016040518091039020819055507f72065162b2ee1441a7a0c9986cf697f45d404f4287e273936159e6e8328af62382826040516114a5929190611d69565b60405180910390a15050565b6000546001600160a01b031633146114f95760405162461bcd60e51b81526020600482018190526024820152600080516020611d9f833981519152604482015260640161040b565b6040517fc23a5cea0000000000000000000000000000000000000000000000000000000081526001600160a01b0382811660048301527f0000000000000000000000000000000000000000000000000000000000000000169063c23a5cea906024016111ed565b6000546001600160a01b031633146115a85760405162461bcd60e51b81526020600482018190526024820152600080516020611d9f833981519152604482015260640161040b565b6001600160a01b0381166116245760405162461bcd60e51b815260206004820152602660248201527f4f776e61626c653a206e6577206f776e657220697320746865207a65726f206160448201527f6464726573730000000000000000000000000000000000000000000000000000606482015260840161040b565b6107a181611734565b6040805180820190915260608152600060208201526001600160a01b03821660009081526002602052604090819020815180830190925280548290829061167390611bcb565b80601f016020809104026020016040519081016040528092919081815260200182805461169f90611bcb565b80156116ec5780601f106116c1576101008083540402835291602001916116ec565b820191906000526020600020905b8154815290600101906020018083116116cf57829003601f168201915b505050505081526020016001820154815250509050919050565b60004262278d008184111561171f575060009392505050565b8061172a8584611d8b565b1015949350505050565b600080546001600160a01b038381167fffffffffffffffffffffffff0000000000000000000000000000000000000000831681178455604051919092169283917f8be0079c531659141344cd1fd0a4f28419497f9722a3daafe3b4186f6b6457e09190a35050565b6001600160a01b03811681146107a157600080fd5b600080604083850312156117c457600080fd5b82356117cf8161179c565b946020939093013593505050565b6000602082840312156117ef57600080fd5b813563ffffffff8116811461180357600080fd5b9392505050565b6020808252825182820181905260009190848201906040850190845b8181101561184b5783516001600160a01b031683529284019291840191600101611826565b50909695505050505050565b60008060006060848603121561186c57600080fd5b83356118778161179c565b925060208401356118878161179c565b929592945050506040919091013590565b6000602082840312156118aa57600080fd5b81356118038161179c565b634e487b7160e01b600052604160045260246000fd5b604051601f8201601f1916810167ffffffffffffffff811182821017156118f4576118f46118b5565b604052919050565b600082601f83011261190d57600080fd5b813567ffffffffffffffff811115611927576119276118b5565b61193a601f8201601f19166020016118cb565b81815284602083860101111561194f57600080fd5b816020850160208301376000918101602001919091529392505050565b60006020828403121561197e57600080fd5b813567ffffffffffffffff81111561199557600080fd5b6119a1848285016118fc565b949350505050565b600080604083850312156119bc57600080fd5b823567ffffffffffffffff8111156119d357600080fd5b6119df858286016118fc565b92505060208301356119f08161179c565b809150509250929050565b60008060408385031215611a0e57600080fd5b823567ffffffffffffffff811115611a2557600080fd5b611a31858286016118fc565b95602094909401359450505050565b60005b83811015611a5b578181015183820152602001611a43565b50506000910152565b60008151808452611a7c816020860160208601611a40565b601f01601f19169290920160200192915050565b602081526000825160406020840152611aac6060840182611a64565b9050602084015160408401528091505092915050565b60008251611ad4818460208701611a40565b9190910192915050565b60006020808385031215611af157600080fd5b825167ffffffffffffffff80821115611b0957600080fd5b818501915085601f830112611b1d57600080fd5b815181811115611b2f57611b2f6118b5565b8060051b9150611b408483016118cb565b8181529183018401918481019088841115611b5a57600080fd5b938501935b83851015611b845784519250611b748361179c565b8282529385019390850190611b5f565b98975050505050505050565b600060208284031215611ba257600080fd5b8151801515811461180357600080fd5b600060208284031215611bc457600080fd5b5051919050565b600181811c90821680611bdf57607f821691505b602082108103611bff57634e487b7160e01b600052602260045260246000fd5b50919050565b6020815260006118036020830184611a64565b634e487b7160e01b600052601160045260246000fd5b80820180821115610a7d57610a7d611c18565b601f8211156109d057600081815260208120601f850160051c81016020861015611c685750805b601f850160051c820191505b818110156104ab57828155600101611c74565b815167ffffffffffffffff811115611ca157611ca16118b5565b611cb581611caf8454611bcb565b84611c41565b602080601f831160018114611cea5760008415611cd25750858301515b600019600386901b1c1916600185901b1785556104ab565b600085815260208120601f198616915b82811015611d1957888601518255948401946001909101908401611cfa565b5085821015611d375787850151600019600388901b60f8161c191681555b5050505050600190811b01905550565b6001600160a01b03831681526040602082015260006119a16040830184611a64565b604081526000611d7c6040830185611a64565b90508260208301529392505050565b81810381811115610a7d57610a7d611c1856fe4f776e61626c653a2063616c6c6572206973206e6f7420746865206f776e6572a2646970667358221220d564bf1186e374e76d52ac62bd81484e6222c7cff63a0068a12fbbb0df7b844564736f6c63430008130033",
  "linkReferences": {},
  "deployedLinkReferences": {}
}