{
  "_format": "hh-sol-artifact-1",
  "contractName": "SimpleAccount",
  "sourceName": "@account-abstraction/contracts/samples/SimpleAccount.sol",
  "abi": [
    {
      "inputs": [
        {
          "internalType": "contract IEntryPoint",
          "name": "anEntryPoint",
          "type": "address"
        }
      ],
      "stateMutability": "nonpayable",
      "type": "constructor"
    },
    {
      "anonymous": false,
      "inputs": [
        {
          "indexed": false,
          "internalType": "address",
          "name": "previousAdmin",
          "type": "address"
        },
        {
          "indexed": false,
          "internalType": "address",
          "name": "newAdmin",
          "type": "address"
        }
      ],
      "name": "AdminChanged",
      "type": "event"
    },
    {
      "anonymous": false,
      "inputs": [
        {
          "indexed": true,
          "internalType": "address",
          "name": "beacon",
          "type": "address"
        }
      ],
      "name": "BeaconUpgraded",
      "type": "event"
    },
    {
      "anonymous": false,
      "inputs": [
        {
          "indexed": true,
          "internalType": "contract IEntryPoint",
          "name": "entryPoint",
          "type": "address"
        },
        {
          "indexed": true,
          "internalType": "address",
          "name": "owner",
          "type": "address"
        }
      ],
      "name": "SimpleAccountInitialized",
      "type": "event"
    },
    {
      "anonymous": false,
      "inputs": [
        {
          "indexed": true,
          "internalType": "address",
          "name": "implementation",
          "type": "address"
        }
      ],
      "name": "Upgraded",
      "type": "event"
    },
    {
      "inputs": [],
      "name": "addDeposit",
      "outputs": [],
      "stateMutability": "payable",
      "type": "function"
    },
    {
      "inputs": [],
      "name": "entryPoint",
      "outputs": [
        {
          "internalType": "contract IEntryPoint",
          "name": "",
          "type": "address"
        }
      ],
      "stateMutability": "view",
      "type": "function"
    },
    {
      "inputs": [
        {
          "internalType": "address",
          "name": "dest",
          "type": "address"
        },
        {
          "internalType": "uint256",
          "name": "value",
          "type": "uint256"
        },
        {
          "internalType": "bytes",
          "name": "func",
          "type": "bytes"
        }
      ],
      "name": "execute",
      "outputs": [],
      "stateMutability": "nonpayable",
      "type": "function"
    },
    {
      "inputs": [
        {
          "internalType": "address[]",
          "name": "dest",
          "type": "address[]"
        },
        {
          "internalType": "bytes[]",
          "name": "func",
          "type": "bytes[]"
        }
      ],
      "name": "executeBatch",
      "outputs": [],
      "stateMutability": "nonpayable",
      "type": "function"
    },
    {
      "inputs": [],
      "name": "getDeposit",
      "outputs": [
        {
          "internalType": "uint256",
          "name": "",
          "type": "uint256"
        }
      ],
      "stateMutability": "view",
      "type": "function"
    },
    {
      "inputs": [],
      "name": "getNonce",
      "outputs": [
        {
          "internalType": "uint256",
          "name": "",
          "type": "uint256"
        }
      ],
      "stateMutability": "view",
      "type": "function"
    },
    {
      "inputs": [
        {
          "internalType": "address",
          "name": "anOwner",
          "type": "address"
        }
      ],
      "name": "initialize",
      "outputs": [],
      "stateMutability": "nonpayable",
      "type": "function"
    },
    {
      "inputs": [
        {
          "internalType": "address",
          "name": "",
          "type": "address"
        },
        {
          "internalType": "address",
          "name": "",
          "type": "address"
        },
        {
          "internalType": "uint256[]",
          "name": "",
          "type": "uint256[]"
        },
        {
          "internalType": "uint256[]",
          "name": "",
          "type": "uint256[]"
        },
        {
          "internalType": "bytes",
          "name": "",
          "type": "bytes"
        }
      ],
      "name": "onERC1155BatchReceived",
      "outputs": [
        {
          "internalType": "bytes4",
          "name": "",
          "type": "bytes4"
        }
      ],
      "stateMutability": "pure",
      "type": "function"
    },
    {
      "inputs": [
        {
          "internalType": "address",
          "name": "",
          "type": "address"
        },
        {
          "internalType": "address",
          "name": "",
          "type": "address"
        },
        {
          "internalType": "uint256",
          "name": "",
          "type": "uint256"
        },
        {
          "internalType": "uint256",
          "name": "",
          "type": "uint256"
        },
        {
          "internalType": "bytes",
          "name": "",
          "type": "bytes"
        }
      ],
      "name": "onERC1155Received",
      "outputs": [
        {
          "internalType": "bytes4",
          "name": "",
          "type": "bytes4"
        }
      ],
      "stateMutability": "pure",
      "type": "function"
    },
    {
      "inputs": [
        {
          "internalType": "address",
          "name": "",
          "type": "address"
        },
        {
          "internalType": "address",
          "name": "",
          "type": "address"
        },
        {
          "internalType": "uint256",
          "name": "",
          "type": "uint256"
        },
        {
          "internalType": "bytes",
          "name": "",
          "type": "bytes"
        }
      ],
      "name": "onERC721Received",
      "outputs": [
        {
          "internalType": "bytes4",
          "name": "",
          "type": "bytes4"
        }
      ],
      "stateMutability": "pure",
      "type": "function"
    },
    {
      "inputs": [],
      "name": "owner",
      "outputs": [
        {
          "internalType": "address",
          "name": "",
          "type": "address"
        }
      ],
      "stateMutability": "view",
      "type": "function"
    },
    {
      "inputs": [
        {
          "internalType": "bytes4",
          "name": "interfaceId",
          "type": "bytes4"
        }
      ],
      "name": "supportsInterface",
      "outputs": [
        {
          "internalType": "bool",
          "name": "",
          "type": "bool"
        }
      ],
      "stateMutability": "view",
      "type": "function"
    },
    {
      "inputs": [
        {
          "internalType": "address",
          "name": "",
          "type": "address"
        },
        {
          "internalType": "address",
          "name": "",
          "type": "address"
        },
        {
          "internalType": "address",
          "name": "",
          "type": "address"
        },
        {
          "internalType": "uint256",
          "name": "",
          "type": "uint256"
        },
        {
          "internalType": "bytes",
          "name": "",
          "type": "bytes"
        },
        {
          "internalType": "bytes",
          "name": "",
          "type": "bytes"
        }
      ],
      "name": "tokensReceived",
      "outputs": [],
      "stateMutability": "pure",
      "type": "function"
    },
    {
      "inputs": [
        {
          "internalType": "address",
          "name": "newImplementation",
          "type": "address"
        }
      ],
      "name": "upgradeTo",
      "outputs": [],
      "stateMutability": "nonpayable",
      "type": "function"
    },
    {
      "inputs": [
        {
          "internalType": "address",
          "name": "newImplementation",
          "type": "address"
        },
        {
          "internalType": "bytes",
          "name": "data",
          "type": "bytes"
        }
      ],
      "name": "upgradeToAndCall",
      "outputs": [],
      "stateMutability": "payable",
      "type": "function"
    },
    {
      "inputs": [
        {
          "components": [
            {
              "internalType": "address",
              "name": "sender",
              "type": "address"
            },
            {
              "internalType": "uint256",
              "name": "nonce",
              "type": "uint256"
            },
            {
              "internalType": "bytes",
              "name": "initCode",
              "type": "bytes"
            },
            {
              "internalType": "bytes",
              "name": "callData",
              "type": "bytes"
            },
            {
              "internalType": "uint256",
              "name": "callGasLimit",
              "type": "uint256"
            },
            {
              "internalType": "uint256",
              "name": "verificationGasLimit",
              "type": "uint256"
            },
            {
              "internalType": "uint256",
              "name": "preVerificationGas",
              "type": "uint256"
            },
            {
              "internalType": "uint256",
              "name": "maxFeePerGas",
              "type": "uint256"
            },
            {
              "internalType": "uint256",
              "name": "maxPriorityFeePerGas",
              "type": "uint256"
            },
            {
              "internalType": "bytes",
              "name": "paymasterAndData",
              "type": "bytes"
            },
            {
              "internalType": "bytes",
              "name": "signature",
              "type": "bytes"
            }
          ],
          "internalType": "struct UserOperation",
          "name": "userOp",
          "type": "tuple"
        },
        {
          "internalType": "bytes32",
          "name": "userOpHash",
          "type": "bytes32"
        },
        {
          "internalType": "uint256",
          "name": "missingAccountFunds",
          "type": "uint256"
        }
      ],
      "name": "validateUserOp",
      "outputs": [
        {
          "internalType": "uint256",
          "name": "validationData",
          "type": "uint256"
        }
      ],
      "stateMutability": "nonpayable",
      "type": "function"
    },
    {
      "inputs": [
        {
          "internalType": "address payable",
          "name": "withdrawAddress",
          "type": "address"
        },
        {
          "internalType": "uint256",
          "name": "amount",
          "type": "uint256"
        }
      ],
      "name": "withdrawDepositTo",
      "outputs": [],
      "stateMutability": "nonpayable",
      "type": "function"
    },
    {
      "stateMutability": "payable",
      "type": "receive"
    }
  ],
  "bytecode": "0x60a060405234801561001057600080fd5b50604051611ad8380380611ad883398101604081905261002f91610040565b6001600160a01b0316608052610070565b60006020828403121561005257600080fd5b81516001600160a01b038116811461006957600080fd5b9392505050565b608051611a1c6100bc600039600081816102b4015281816105ad0152818161064701528181610788015281816109040152818161093e01528181610c080152610e4e0152611a1c6000f3fe6080604052600436106101115760003560e01c80634f1ef286116100a5578063bc197c8111610074578063c4d66de811610059578063c4d66de814610355578063d087d28814610375578063f23a6e611461038a57600080fd5b8063bc197c81146102f8578063c399ec881461034057600080fd5b80634f1ef286146102545780638da5cb5b14610267578063b0d691fe146102a5578063b61d27f6146102d857600080fd5b80633659cfe6116100e15780633659cfe6146101de5780633a871cdd146101fe5780634a58db191461022c5780634d44560d1461023457600080fd5b806223de291461011d57806301ffc9a714610144578063150b7a021461017957806318dfb3c7146101be57600080fd5b3661011857005b600080fd5b34801561012957600080fd5b506101426101383660046113cf565b5050505050505050565b005b34801561015057600080fd5b5061016461015f366004611480565b6103d0565b60405190151581526020015b60405180910390f35b34801561018557600080fd5b506101a56101943660046114aa565b630a85bd0160e11b95945050505050565b6040516001600160e01b03199091168152602001610170565b3480156101ca57600080fd5b506101426101d9366004611562565b610454565b3480156101ea57600080fd5b506101426101f93660046115ce565b61055e565b34801561020a57600080fd5b5061021e6102193660046115eb565b610585565b604051908152602001610170565b6101426105ab565b34801561024057600080fd5b5061014261024f36600461163f565b61063d565b610142610262366004611681565b6106e7565b34801561027357600080fd5b5060005461028d906201000090046001600160a01b031681565b6040516001600160a01b039091168152602001610170565b3480156102b157600080fd5b507f000000000000000000000000000000000000000000000000000000000000000061028d565b3480156102e457600080fd5b506101426102f3366004611745565b610700565b34801561030457600080fd5b506101a5610313366004611795565b7fbc197c810000000000000000000000000000000000000000000000000000000098975050505050505050565b34801561034c57600080fd5b5061021e61074f565b34801561036157600080fd5b506101426103703660046115ce565b6107f9565b34801561038157600080fd5b5061021e6108c4565b34801561039657600080fd5b506101a56103a5366004611833565b7ff23a6e61000000000000000000000000000000000000000000000000000000009695505050505050565b60006001600160e01b03198216630a85bd0160e11b148061041a57506001600160e01b031982167f4e2312e000000000000000000000000000000000000000000000000000000000145b8061044e57506001600160e01b031982167f01ffc9a700000000000000000000000000000000000000000000000000000000145b92915050565b61045c610933565b8281146104b05760405162461bcd60e51b815260206004820152601360248201527f77726f6e67206172726179206c656e677468730000000000000000000000000060448201526064015b60405180910390fd5b60005b83811015610557576105458585838181106104d0576104d06118af565b90506020020160208101906104e591906115ce565b60008585858181106104f9576104f96118af565b905060200281019061050b91906118c5565b8080601f0160208091040260200160405190810160405280939291908181526020018383808284376000920191909152506109c892505050565b8061054f8161190c565b9150506104b3565b5050505050565b61056781610a38565b61058281604051806020016040528060008152506000610a40565b50565b600061058f610bfd565b6105998484610c75565b90506105a482610d4e565b9392505050565b7f00000000000000000000000000000000000000000000000000000000000000006040517fb760faf90000000000000000000000000000000000000000000000000000000081523060048201526001600160a01b03919091169063b760faf99034906024016000604051808303818588803b15801561062957600080fd5b505af1158015610557573d6000803e3d6000fd5b610645610d9b565b7f00000000000000000000000000000000000000000000000000000000000000006040517f205c28780000000000000000000000000000000000000000000000000000000081526001600160a01b03848116600483015260248201849052919091169063205c287890604401600060405180830381600087803b1580156106cb57600080fd5b505af11580156106df573d6000803e3d6000fd5b505050505050565b6106f082610a38565b6106fc82826001610a40565b5050565b610708610933565b610749848484848080601f0160208091040260200160405190810160405280939291908181526020018383808284376000920191909152506109c892505050565b50505050565b6040517f70a082310000000000000000000000000000000000000000000000000000000081523060048201526000906001600160a01b037f000000000000000000000000000000000000000000000000000000000000000016906370a08231906024015b602060405180830381865afa1580156107d0573d6000803e3d6000fd5b505050506040513d601f19601f820116820180604052508101906107f49190611933565b905090565b600054610100900460ff1680610812575060005460ff16155b6108845760405162461bcd60e51b815260206004820152602e60248201527f496e697469616c697a61626c653a20636f6e747261637420697320616c72656160448201527f647920696e697469616c697a656400000000000000000000000000000000000060648201526084016104a7565b600054610100900460ff161580156108a6576000805461ffff19166101011790555b6108af82610e05565b80156106fc576000805461ff00191690555050565b6040517f35567e1a000000000000000000000000000000000000000000000000000000008152306004820152600060248201819052906001600160a01b037f000000000000000000000000000000000000000000000000000000000000000016906335567e1a906044016107b3565b336001600160a01b037f000000000000000000000000000000000000000000000000000000000000000016148061097a57506000546201000090046001600160a01b031633145b6109c65760405162461bcd60e51b815260206004820181905260248201527f6163636f756e743a206e6f74204f776e6572206f7220456e747279506f696e7460448201526064016104a7565b565b600080846001600160a01b031684846040516109e49190611970565b60006040518083038185875af1925050503d8060008114610a21576040519150601f19603f3d011682016040523d82523d6000602084013e610a26565b606091505b50915091508161055757805160208201fd5b610582610d9b565b6000610a737f360894a13ba1a3210667c828492db98dca3e2076cc3735a920a3ca505d382bbc546001600160a01b031690565b9050610a7e84610e97565b600083511180610a8b5750815b15610a9c57610a9a8484610f64565b505b7f4910fdfa16fed3260ed0e7147f7cc6da11a60208b5b9406d12a635614ffd9143805460ff1661055757805460ff191660011781556040516001600160a01b0383166024820152610b4990869060440160408051601f198184030181529190526020810180517bffffffffffffffffffffffffffffffffffffffffffffffffffffffff167f3659cfe600000000000000000000000000000000000000000000000000000000179052610f64565b50805460ff191681557f360894a13ba1a3210667c828492db98dca3e2076cc3735a920a3ca505d382bbc546001600160a01b03838116911614610bf45760405162461bcd60e51b815260206004820152602f60248201527f45524331393637557067726164653a207570677261646520627265616b73206660448201527f757274686572207570677261646573000000000000000000000000000000000060648201526084016104a7565b61055785610f89565b336001600160a01b037f000000000000000000000000000000000000000000000000000000000000000016146109c65760405162461bcd60e51b815260206004820152601c60248201527f6163636f756e743a206e6f742066726f6d20456e747279506f696e740000000060448201526064016104a7565b600080610ccf836040517f19457468657265756d205369676e6564204d6573736167653a0a3332000000006020820152603c8101829052600090605c01604051602081830303815290604052805190602001209050919050565b9050610d1f610ce26101408601866118c5565b8080601f0160208091040260200160405190810160405280939291908181526020018383808284376000920191909152508593925050610fc99050565b6000546201000090046001600160a01b03908116911614610d4457600191505061044e565b5060009392505050565b801561058257604051600090339060001990849084818181858888f193505050503d8060008114610557576040519150601f19603f3d011682016040523d82523d6000602084013e610557565b6000546201000090046001600160a01b0316331480610db957503330145b6109c65760405162461bcd60e51b815260206004820152600a60248201527f6f6e6c79206f776e65720000000000000000000000000000000000000000000060448201526064016104a7565b600080547fffffffffffffffffffff0000000000000000000000000000000000000000ffff16620100006001600160a01b038481168202929092178084556040519190048216927f0000000000000000000000000000000000000000000000000000000000000000909216917f47e55c76e7a6f1fd8996a1da8008c1ea29699cca35e7bcd057f2dec313b6e5de91a350565b803b610f0b5760405162461bcd60e51b815260206004820152602d60248201527f455243313936373a206e657720696d706c656d656e746174696f6e206973206e60448201527f6f74206120636f6e74726163740000000000000000000000000000000000000060648201526084016104a7565b7f360894a13ba1a3210667c828492db98dca3e2076cc3735a920a3ca505d382bbc80547fffffffffffffffffffffffff0000000000000000000000000000000000000000166001600160a01b0392909216919091179055565b60606105a483836040518060600160405280602781526020016119c06027913961106b565b610f9281610e97565b6040516001600160a01b038216907fbc7cd75a20ee27fd9adebab32041f755214dbc6bffa90cc0225b39da2e5c2d3b90600090a250565b60008151604103610ffc5760208201516040830151606084015160001a610ff286828585611156565b935050505061044e565b8151604003611023576020820151604083015161101a8583836112ff565b9250505061044e565b60405162461bcd60e51b815260206004820152601f60248201527f45434453413a20696e76616c6964207369676e6174757265206c656e6774680060448201526064016104a7565b6060833b6110e15760405162461bcd60e51b815260206004820152602660248201527f416464726573733a2064656c65676174652063616c6c20746f206e6f6e2d636f60448201527f6e7472616374000000000000000000000000000000000000000000000000000060648201526084016104a7565b600080856001600160a01b0316856040516110fc9190611970565b600060405180830381855af49150503d8060008114611137576040519150601f19603f3d011682016040523d82523d6000602084013e61113c565b606091505b509150915061114c828286611338565b9695505050505050565b60007f7fffffffffffffffffffffffffffffff5d576e7357a4501ddfe92f46681b20a08211156111d35760405162461bcd60e51b815260206004820152602260248201527f45434453413a20696e76616c6964207369676e6174757265202773272076616c604482015261756560f01b60648201526084016104a7565b8360ff16601b14806111e857508360ff16601c145b61123f5760405162461bcd60e51b815260206004820152602260248201527f45434453413a20696e76616c6964207369676e6174757265202776272076616c604482015261756560f01b60648201526084016104a7565b6040805160008082526020820180845288905260ff871692820192909252606081018590526080810184905260019060a0016020604051602081039080840390855afa158015611293573d6000803e3d6000fd5b5050604051601f1901519150506001600160a01b0381166112f65760405162461bcd60e51b815260206004820152601860248201527f45434453413a20696e76616c6964207369676e6174757265000000000000000060448201526064016104a7565b95945050505050565b60007f7fffffffffffffffffffffffffffffffffffffffffffffffffffffffffffffff821660ff83901c601b0161114c86828785611156565b606083156113475750816105a4565b8251156113575782518084602001fd5b8160405162461bcd60e51b81526004016104a7919061198c565b6001600160a01b038116811461058257600080fd5b60008083601f84011261139857600080fd5b50813567ffffffffffffffff8111156113b057600080fd5b6020830191508360208285010111156113c857600080fd5b9250929050565b60008060008060008060008060c0898b0312156113eb57600080fd5b88356113f681611371565b9750602089013561140681611371565b9650604089013561141681611371565b955060608901359450608089013567ffffffffffffffff8082111561143a57600080fd5b6114468c838d01611386565b909650945060a08b013591508082111561145f57600080fd5b5061146c8b828c01611386565b999c989b5096995094979396929594505050565b60006020828403121561149257600080fd5b81356001600160e01b0319811681146105a457600080fd5b6000806000806000608086880312156114c257600080fd5b85356114cd81611371565b945060208601356114dd81611371565b935060408601359250606086013567ffffffffffffffff81111561150057600080fd5b61150c88828901611386565b969995985093965092949392505050565b60008083601f84011261152f57600080fd5b50813567ffffffffffffffff81111561154757600080fd5b6020830191508360208260051b85010111156113c857600080fd5b6000806000806040858703121561157857600080fd5b843567ffffffffffffffff8082111561159057600080fd5b61159c8883890161151d565b909650945060208701359150808211156115b557600080fd5b506115c28782880161151d565b95989497509550505050565b6000602082840312156115e057600080fd5b81356105a481611371565b60008060006060848603121561160057600080fd5b833567ffffffffffffffff81111561161757600080fd5b8401610160818703121561162a57600080fd5b95602085013595506040909401359392505050565b6000806040838503121561165257600080fd5b823561165d81611371565b946020939093013593505050565b634e487b7160e01b600052604160045260246000fd5b6000806040838503121561169457600080fd5b823561169f81611371565b9150602083013567ffffffffffffffff808211156116bc57600080fd5b818501915085601f8301126116d057600080fd5b8135818111156116e2576116e261166b565b604051601f8201601f19908116603f0116810190838211818310171561170a5761170a61166b565b8160405282815288602084870101111561172357600080fd5b8260208601602083013760006020848301015280955050505050509250929050565b6000806000806060858703121561175b57600080fd5b843561176681611371565b935060208501359250604085013567ffffffffffffffff81111561178957600080fd5b6115c287828801611386565b60008060008060008060008060a0898b0312156117b157600080fd5b88356117bc81611371565b975060208901356117cc81611371565b9650604089013567ffffffffffffffff808211156117e957600080fd5b6117f58c838d0161151d565b909850965060608b013591508082111561180e57600080fd5b61181a8c838d0161151d565b909650945060808b013591508082111561145f57600080fd5b60008060008060008060a0878903121561184c57600080fd5b863561185781611371565b9550602087013561186781611371565b94506040870135935060608701359250608087013567ffffffffffffffff81111561189157600080fd5b61189d89828a01611386565b979a9699509497509295939492505050565b634e487b7160e01b600052603260045260246000fd5b6000808335601e198436030181126118dc57600080fd5b83018035915067ffffffffffffffff8211156118f757600080fd5b6020019150368190038213156113c857600080fd5b60006001820161192c57634e487b7160e01b600052601160045260246000fd5b5060010190565b60006020828403121561194557600080fd5b5051919050565b60005b8381101561196757818101518382015260200161194f565b50506000910152565b6000825161198281846020870161194c565b9190910192915050565b60208152600082518060208401526119ab81604085016020870161194c565b601f01601f1916919091016040019291505056fe416464726573733a206c6f772d6c6576656c2064656c65676174652063616c6c206661696c6564a26469706673582212206fe3abde498e28b4944217d6db87cc753be00a068b27fa8d6d9c2b0de50fbc6464736f6c63430008130033",
  "linkReferences": {},
  "deployedLinkReferences": {}
}