{
  "_format": "hh-sol-artifact-1",
  "contractName": "Paymaster",
  "sourceName": "contracts/Paymaster.sol",
  "abi": [
    {
      "anonymous": false,
      "inputs": [
        {
          "indexed": true,
          "internalType": "address",
          "name": "previousOwner",
          "type": "address"
        },
        {
          "indexed": true,
          "internalType": "address",
          "name": "newOwner",
          "type": "address"
        }
      ],
      "name": "OwnershipTransferred",
      "type": "event"
    },
    {
      "inputs": [
        {
          "internalType": "uint32",
          "name": "unstakeDelaySec",
          "type": "uint32"
        }
      ],
      "name": "addStake",
      "outputs": [],
      "stateMutability": "payable",
      "type": "function"
    },
    {
      "inputs": [
        {
          "internalType": "address",
          "name": "user",
          "type": "address"
        },
        {
          "internalType": "uint256",
          "name": "amount",
          "type": "uint256"
        }
      ],
      "name": "fundUser",
      "outputs": [],
      "stateMutability": "nonpayable",
      "type": "function"
    },
    {
      "inputs": [],
      "name": "getPosts",
      "outputs": [
        {
          "internalType": "address[]",
          "name": "",
          "type": "address[]"
        }
      ],
      "stateMutability": "view",
      "type": "function"
    },
    {
      "inputs": [
        {
          "internalType": "address",
          "name": "user",
          "type": "address"
        }
      ],
      "name": "getUserBalance",
      "outputs": [
        {
          "internalType": "uint256",
          "name": "",
          "type": "uint256"
        }
      ],
      "stateMutability": "view",
      "type": "function"
    },
    {
      "inputs": [],
      "name": "owner",
      "outputs": [
        {
          "internalType": "address",
          "name": "",
          "type": "address"
        }
      ],
      "stateMutability": "view",
      "type": "function"
    },
    {
      "inputs": [
        {
          "internalType": "enum IPaymaster.PostOpMode",
          "name": "mode",
          "type": "uint8"
        },
        {
          "internalType": "bytes",
          "name": "context",
          "type": "bytes"
        },
        {
          "internalType": "uint256",
          "name": "actualGasCost",
          "type": "uint256"
        }
      ],
      "name": "postOp",
      "outputs": [],
      "stateMutability": "nonpayable",
      "type": "function"
    },
    {
      "inputs": [],
      "name": "renounceOwnership",
      "outputs": [],
      "stateMutability": "nonpayable",
      "type": "function"
    },
    {
      "inputs": [
        {
          "internalType": "address",
          "name": "newOwner",
          "type": "address"
        }
      ],
      "name": "transferOwnership",
      "outputs": [],
      "stateMutability": "nonpayable",
      "type": "function"
    },
    {
      "inputs": [],
      "name": "unlockStake",
      "outputs": [],
      "stateMutability": "nonpayable",
      "type": "function"
    },
    {
      "inputs": [
        {
          "components": [
            {
              "internalType": "address",
              "name": "sender",
              "type": "address"
            },
            {
              "internalType": "uint256",
              "name": "nonce",
              "type": "uint256"
            },
            {
              "internalType": "bytes",
              "name": "initCode",
              "type": "bytes"
            },
            {
              "internalType": "bytes",
              "name": "callData",
              "type": "bytes"
            },
            {
              "internalType": "uint256",
              "name": "callGasLimit",
              "type": "uint256"
            },
            {
              "internalType": "uint256",
              "name": "verificationGasLimit",
              "type": "uint256"
            },
            {
              "internalType": "uint256",
              "name": "preVerificationGas",
              "type": "uint256"
            },
            {
              "internalType": "uint256",
              "name": "maxFeePerGas",
              "type": "uint256"
            },
            {
              "internalType": "uint256",
              "name": "maxPriorityFeePerGas",
              "type": "uint256"
            },
            {
              "internalType": "bytes",
              "name": "paymasterAndData",
              "type": "bytes"
            },
            {
              "internalType": "bytes",
              "name": "signature",
              "type": "bytes"
            }
          ],
          "internalType": "struct UserOperation",
          "name": "userOp",
          "type": "tuple"
        },
        {
          "internalType": "bytes32",
          "name": "",
          "type": "bytes32"
        },
        {
          "internalType": "uint256",
          "name": "",
          "type": "uint256"
        }
      ],
      "name": "validatePaymasterUserOp",
      "outputs": [
        {
          "internalType": "bytes",
          "name": "context",
          "type": "bytes"
        },
        {
          "internalType": "uint256",
          "name": "validationData",
          "type": "uint256"
        }
      ],
      "stateMutability": "view",
      "type": "function"
    },
    {
      "inputs": [
        {
          "internalType": "address payable",
          "name": "to",
          "type": "address"
        },
        {
          "internalType": "uint256",
          "name": "amount",
          "type": "uint256"
        }
      ],
      "name": "withdraw",
      "outputs": [],
      "stateMutability": "nonpayable",
      "type": "function"
    },
    {
      "inputs": [
        {
          "internalType": "address payable",
          "name": "to",
          "type": "address"
        }
      ],
      "name": "withdrawStake",
      "outputs": [],
      "stateMutability": "nonpayable",
      "type": "function"
    },
    {
      "inputs": [
        {
          "internalType": "address",
          "name": "user",
          "type": "address"
        },
        {
          "internalType": "uint256",
          "name": "amount",
          "type": "uint256"
        }
      ],
      "name": "withdrawUserBalance",
      "outputs": [
        {
          "internalType": "bool",
          "name": "",
          "type": "bool"
        }
      ],
      "stateMutability": "nonpayable",
      "type": "function"
    }
  ],
  "bytecode": "0x608060405234801561001057600080fd5b5061001a3361001f565b61006f565b600080546001600160a01b038381166001600160a01b0319831681178455604051919092169283917f8be0079c531659141344cd1fd0a4f28419497f9722a3daafe3b4186f6b6457e09190a35050565b6112758061007e6000396000f3fe6080604052600436106100d25760003560e01c80638da5cb5b1161007f578063c23a5cea11610059578063c23a5cea14610219578063f2fde38b14610239578063f3fef3a314610259578063f465c77e1461027957600080fd5b80638da5cb5b146101bc578063a9a23409146101e4578063bb9fe6bf1461020457600080fd5b806347734892116100b057806347734892146101435780634e23a14414610187578063715018a6146101a757600080fd5b80630396cb60146100d75780630515af9e146100ec57806341f3004a14610121575b600080fd5b6100ea6100e5366004610c24565b6102a7565b005b3480156100f857600080fd5b5061010c610107366004610c76565b61042d565b60405190151581526020015b60405180910390f35b34801561012d57600080fd5b50610136610505565b6040516101189190610ca2565b34801561014f57600080fd5b5061017961015e366004610cef565b6001600160a01b031660009081526001602052604090205490565b604051908152602001610118565b34801561019357600080fd5b506100ea6101a2366004610c76565b610567565b3480156101b357600080fd5b506100ea610606565b3480156101c857600080fd5b506000546040516001600160a01b039091168152602001610118565b3480156101f057600080fd5b506100ea6101ff366004610d0c565b61066c565b34801561021057600080fd5b506100ea6106e4565b34801561022557600080fd5b506100ea610234366004610cef565b6107a7565b34801561024557600080fd5b506100ea610254366004610cef565b610883565b34801561026557600080fd5b506100ea610274366004610c76565b610965565b34801561028557600080fd5b50610299610294366004610d9b565b610a50565b604051610118929190610e13565b6000546001600160a01b031633146103065760405162461bcd60e51b815260206004820181905260248201527f4f776e61626c653a2063616c6c6572206973206e6f7420746865206f776e657260448201526064015b60405180910390fd5b60405163ffffffff82166024820152600090735ff137d4b0fdcd49dca30c7cf57e578a026d278990349060440160408051601f198184030181529181526020820180517bffffffffffffffffffffffffffffffffffffffffffffffffffffffff167f0396cb6000000000000000000000000000000000000000000000000000000000179052516103969190610e4e565b60006040518083038185875af1925050503d80600081146103d3576040519150601f19603f3d011682016040523d82523d6000602084013e6103d8565b606091505b50509050806104295760405162461bcd60e51b815260206004820152600b60248201527f43616c6c206661696c656400000000000000000000000000000000000000000060448201526064016102fd565b5050565b600080546001600160a01b031633146104885760405162461bcd60e51b815260206004820181905260248201527f4f776e61626c653a2063616c6c6572206973206e6f7420746865206f776e657260448201526064016102fd565b6001600160a01b0383166000908152600160205260409020548211156104ad57600080fd5b6001600160a01b038316600090815260016020526040812054906104d18483610e80565b6001600160a01b03861660009081526001602052604090208190559050806104f98184610e80565b14925050505b92915050565b6060600280548060200260200160405190810160405280929190818152602001828054801561055d57602002820191906000526020600020905b81546001600160a01b0316815260019091019060200180831161053f575b5050505050905090565b6000546001600160a01b031633146105c15760405162461bcd60e51b815260206004820181905260248201527f4f776e61626c653a2063616c6c6572206973206e6f7420746865206f776e657260448201526064016102fd565b6001600160a01b0382166000908152600160205260408120546105e5908390610e93565b6001600160a01b039093166000908152600160205260409020929092555050565b6000546001600160a01b031633146106605760405162461bcd60e51b815260206004820181905260248201527f4f776e61626c653a2063616c6c6572206973206e6f7420746865206f776e657260448201526064016102fd565b61066a6000610bbc565b565b600061067a83850185610f73565b80516001600160a01b0316600090815260016020526040902054909150156106dd5780516001600160a01b03166000908152600160205260408120546106c1908490610e80565b82516001600160a01b0316600090815260016020526040902055505b5050505050565b6000546001600160a01b0316331461073e5760405162461bcd60e51b815260206004820181905260248201527f4f776e61626c653a2063616c6c6572206973206e6f7420746865206f776e657260448201526064016102fd565b735ff137d4b0fdcd49dca30c7cf57e578a026d27896001600160a01b031663bb9fe6bf6040518163ffffffff1660e01b8152600401600060405180830381600087803b15801561078d57600080fd5b505af11580156107a1573d6000803e3d6000fd5b50505050565b6000546001600160a01b031633146108015760405162461bcd60e51b815260206004820181905260248201527f4f776e61626c653a2063616c6c6572206973206e6f7420746865206f776e657260448201526064016102fd565b6040517fc23a5cea0000000000000000000000000000000000000000000000000000000081526001600160a01b0382166004820152735ff137d4b0fdcd49dca30c7cf57e578a026d27899063c23a5cea90602401600060405180830381600087803b15801561086f57600080fd5b505af11580156106dd573d6000803e3d6000fd5b6000546001600160a01b031633146108dd5760405162461bcd60e51b815260206004820181905260248201527f4f776e61626c653a2063616c6c6572206973206e6f7420746865206f776e657260448201526064016102fd565b6001600160a01b0381166109595760405162461bcd60e51b815260206004820152602660248201527f4f776e61626c653a206e6577206f776e657220697320746865207a65726f206160448201527f646472657373000000000000000000000000000000000000000000000000000060648201526084016102fd565b61096281610bbc565b50565b6000546001600160a01b031633146109bf5760405162461bcd60e51b815260206004820181905260248201527f4f776e61626c653a2063616c6c6572206973206e6f7420746865206f776e657260448201526064016102fd565b6040517f205c28780000000000000000000000000000000000000000000000000000000081526001600160a01b038316600482015260248101829052735ff137d4b0fdcd49dca30c7cf57e578a026d27899063205c287890604401600060405180830381600087803b158015610a3457600080fd5b505af1158015610a48573d6000803e3d6000fd5b505050505050565b6060600080600181610a656020890189610cef565b6001600160a01b03166001600160a01b031681526020019081526020016000205411610ae85760405162461bcd60e51b815260206004820152602c60248201527f5061796d61737465723a20496e73756666696369656e74207374616b6564206660448201526b756e647320666f722067617360a01b60648201526084016102fd565b610afa60e086013560808701356110a2565b60016000610b0b6020890189610cef565b6001600160a01b03166001600160a01b03168152602001908152602001600020541015610b8f5760405162461bcd60e51b815260206004820152602c60248201527f5061796d61737465723a20496e73756666696369656e74207374616b6564206660448201526b756e647320666f722067617360a01b60648201526084016102fd565b84604051602001610ba0919061112f565b60408051601f1981840301815291905295600095509350505050565b600080546001600160a01b038381167fffffffffffffffffffffffff0000000000000000000000000000000000000000831681178455604051919092169283917f8be0079c531659141344cd1fd0a4f28419497f9722a3daafe3b4186f6b6457e09190a35050565b600060208284031215610c3657600080fd5b813563ffffffff81168114610c4a57600080fd5b9392505050565b6001600160a01b038116811461096257600080fd5b8035610c7181610c51565b919050565b60008060408385031215610c8957600080fd5b8235610c9481610c51565b946020939093013593505050565b6020808252825182820181905260009190848201906040850190845b81811015610ce35783516001600160a01b031683529284019291840191600101610cbe565b50909695505050505050565b600060208284031215610d0157600080fd5b8135610c4a81610c51565b60008060008060608587031215610d2257600080fd5b843560038110610d3157600080fd5b9350602085013567ffffffffffffffff80821115610d4e57600080fd5b818701915087601f830112610d6257600080fd5b813581811115610d7157600080fd5b886020828501011115610d8357600080fd5b95986020929092019750949560400135945092505050565b600080600060608486031215610db057600080fd5b833567ffffffffffffffff811115610dc757600080fd5b84016101608187031215610dda57600080fd5b95602085013595506040909401359392505050565b60005b83811015610e0a578181015183820152602001610df2565b50506000910152565b6040815260008351806040840152610e32816060850160208801610def565b602083019390935250601f91909101601f191601606001919050565b60008251610e60818460208701610def565b9190910192915050565b634e487b7160e01b600052601160045260246000fd5b818103818111156104ff576104ff610e6a565b808201808211156104ff576104ff610e6a565b634e487b7160e01b600052604160045260246000fd5b604051610160810167ffffffffffffffff81118282101715610ee057610ee0610ea6565b60405290565b600082601f830112610ef757600080fd5b813567ffffffffffffffff80821115610f1257610f12610ea6565b604051601f8301601f19908116603f01168101908282118183101715610f3a57610f3a610ea6565b81604052838152866020858801011115610f5357600080fd5b836020870160208301376000602085830101528094505050505092915050565b600060208284031215610f8557600080fd5b813567ffffffffffffffff80821115610f9d57600080fd5b908301906101608286031215610fb257600080fd5b610fba610ebc565b610fc383610c66565b815260208301356020820152604083013582811115610fe157600080fd5b610fed87828601610ee6565b60408301525060608301358281111561100557600080fd5b61101187828601610ee6565b6060830152506080830135608082015260a083013560a082015260c083013560c082015260e083013560e0820152610100808401358183015250610120808401358381111561105f57600080fd5b61106b88828701610ee6565b828401525050610140808401358381111561108557600080fd5b61109188828701610ee6565b918301919091525095945050505050565b80820281158282048414176104ff576104ff610e6a565b6000808335601e198436030181126110d057600080fd5b830160208101925035905067ffffffffffffffff8111156110f057600080fd5b8036038213156110ff57600080fd5b9250929050565b81835281816020850137506000828201602090810191909152601f909101601f19169091010190565b602081526111506020820161114384610c66565b6001600160a01b03169052565b60208201356040820152600061116960408401846110b9565b61016080606086015261118161018086018385611106565b925061119060608701876110b9565b9250601f19808786030160808801526111aa858584611106565b9450608088013560a088015260a088013560c088015260c088013560e0880152610100935060e088013584880152610120915083880135828801526111f1828901896110b9565b9450915061014081888703018189015261120c868685611106565b955061121a818a018a6110b9565b955092505080878603018388015250611234848483611106565b97965050505050505056fea26469706673582212206fec0c11832fe7a5501a95e02eb7ba77765abad754a9c1f6d9ceebf1b4554c3364736f6c63430008130033",
  "linkReferences": {},
  "deployedLinkReferences": {}
}